S01B00004D6963726F5F485730335F34303030363133332E73726563BE
S11300000C942A000C9436000C9445000C94340093
S11300100C9434000C9434000C9434000C9434008C
S11300200C9434000C9434000C9434000C9434007C
S11300300C9434000C9434000C9434000C9434006C
S11300400C9434000C9434000C9434000C9434005C
S11300500C94340011241FBECFE5D8E0DEBFCDBF21
S11300600E9459000C947B000C9400001F920F9284
S11300700FB60F9211248F9385B38F5F85BB8F9139
S11300800F900FBE0F901F9018951F920F920FB6EE
S11300900F9211248F9385B3815085BB8F910F905C
S11300A00FBE0F901F90189592B380E1892782BBF1
S11300B0089515BA8FEF84BB81B3806181BB8BB780
S11300C0806C8BBF85B7836085BF85B78C6085BF27
S11300D0789485B38536E8F385B3883CD0F70E94DD
S11300E054002FE986E891E0215080409040E1F7E8
S10D00F000C00000EECFF894FFCF2B
S9030000FC
