:100000000C942A000C943F000C943F000C943F0089
:100010000C943F000C943F000C943F000C943F0064
:100020000C943F000C943F000C943F000C943F0054
:100030000C943F000C943F000C943F000C943F0044
:100040000C943F000C943F000C943F000C943F0034
:100050000C943F0011241FBECFE5D8E0DEBFCDBF1A
:1000600010E0A0E6B0E0E8EFF0E002C005900D92ED
:10007000A436B107D9F70E9466000C947A000C945C
:1000800000008AB188618AB980B5866880BD83E343
:1000900089B910BC08955F9BFECF8CB108955D9B1C
:1000A000FECF8CB908950F931F93CF938C01C0E0BE
:1000B00003C00E944F00CF5FF801EC0FF11D80815B
:1000C0008111F7CFCF911F910F9108950E944100A8
:1000D00080E690E00E9453000E944B002FEF39E62B
:1000E00098E1215030409040E1F700C000000E94AC
:0800F0004F00F2CFF894FFCF9E
:0400F800737200001F
:00000001FF
