:0C0000000C943E000C9400000C940000D6
:10000C000C9400000C9400000C9400000C94000064
:10001C000C9400000C9400000C9400000C94000054
:10002C000C9400000C9400000C946B000C940000D9
:10003C000C949D000C9400000C9400000C94000097
:10004C000C9400000C9400001027E80364000A00D4
:10005C000100001000011000010000000000000071
:10006C0000000100020066000600040068000000A9
:10007C00F894EE27ECBBF1E0FBBFEBBFE5BF8DE0E6
:10008C00A2E0BB27ED938A95E9F780E098E0A0E623
:10009C00ED930197E9F7EEE6F0E0859195910097E5
:1000AC0061F0A591B59105901590BF01F0010590F7
:1000BC000D920197E1F7FB01F0CFEFE5EDBFE8E022
:1000CC00EEBFC0E6D2E00C94CF00EA93FA93EFB700
:1000DC00EA931A930A931BB10CB1E12FEC7189F4DA
:1000EC00E52D5394F0E0E05AFD4F0083E8E0E51570
:1000FC0009F455247394E8E0E71519F4772468940F
:10010C0020F80991199125C01A937720F1F3E42D69
:10011C004394F0E0E05AFD4F1081E8E0E41509F457
:10012C004424F8947A947894E12F19910895EA93E1
:10013C00FA93EFB7EA93882061F08A94E92D9394AF
:10014C00F0E0E859FD4FE081ECB9E8E0E91509F47D
:10015C009924E991EFBFF991E9911895AA93E8E0F8
:10016C00E815E9F3F894882011F45D990DC0E62D9B
:10017C006394F0E0E859FD4FA881A083E8E0E61510
:10018C0009F46624839402C0E881ECB97894219632
:10019C000895E0E0EBB9E8EDEAB9E7ECE0BD78945E
:1001AC00EFEFEABBB1DFEBBBA3E7D8DFFBCFFFCFB1
:00000001FF
